{
  "contractName": "RevocationRegistry",
  "abi": [
    {
      "anonymous": false,
      "inputs": [
        {
          "indexed": false,
          "internalType": "address",
          "name": "issuer",
          "type": "address"
        },
        {
          "indexed": false,
          "internalType": "bytes32",
          "name": "digest",
          "type": "bytes32"
        }
      ],
      "name": "Revoked",
      "type": "event"
    },
    {
      "constant": false,
      "inputs": [
        {
          "internalType": "bytes32",
          "name": "digest",
          "type": "bytes32"
        }
      ],
      "name": "revoke",
      "outputs": [],
      "payable": false,
      "stateMutability": "nonpayable",
      "type": "function"
    },
    {
      "constant": true,
      "inputs": [
        {
          "internalType": "address",
          "name": "issuer",
          "type": "address"
        },
        {
          "internalType": "bytes32",
          "name": "digest",
          "type": "bytes32"
        }
      ],
      "name": "revoked",
      "outputs": [
        {
          "internalType": "uint256",
          "name": "",
          "type": "uint256"
        }
      ],
      "payable": false,
      "stateMutability": "view",
      "type": "function"
    }
  ],
  "bytecode": "0x608060405234801561001057600080fd5b50610278806100206000396000f3fe608060405234801561001057600080fd5b50600436106100365760003560e01c8063b75c7dc61461003b578063e46e384614610069575b600080fd5b6100676004803603602081101561005157600080fd5b81019080803590602001909291905050506100cb565b005b6100b56004803603604081101561007f57600080fd5b81019080803573ffffffffffffffffffffffffffffffffffffffff169060200190929190803590602001909291905050506101e9565b6040518082815260200191505060405180910390f35b600080600083815260200190815260200160002060003373ffffffffffffffffffffffffffffffffffffffff1673ffffffffffffffffffffffffffffffffffffffff168152602001908152602001600020541461012757600080fd5b4360008083815260200190815260200160002060003373ffffffffffffffffffffffffffffffffffffffff1673ffffffffffffffffffffffffffffffffffffffff168152602001908152602001600020819055507f6e70be4be1a4aebd688b5523bd8b6278acac3963d71ebf2bd5ea50757047664b3382604051808373ffffffffffffffffffffffffffffffffffffffff1673ffffffffffffffffffffffffffffffffffffffff1681526020018281526020019250505060405180910390a150565b600080600083815260200190815260200160002060008473ffffffffffffffffffffffffffffffffffffffff1673ffffffffffffffffffffffffffffffffffffffff1681526020019081526020016000205490509291505056fea265627a7a723158207c82b79f9c52198d9fa40ad03c579ca8a42cc46f60f42a983df50f97af3416bb64736f6c63430005100032",
  "source": "pragma solidity >=0.5.8;\n\ncontract RevocationRegistry {\n\n    mapping(bytes32 => mapping(address => uint)) private revocations;\n\n    function revoke(bytes32 digest) public {\n        require (revocations[digest][msg.sender] == 0);\n        revocations[digest][msg.sender] = block.number;\n        emit Revoked(msg.sender, digest);\n    }\n\n    function revoked(address issuer, bytes32 digest) public view returns (uint) {\n        return revocations[digest][issuer];\n    }\n\n    event Revoked(address issuer, bytes32 digest);\n}",
  "sourcePath": "/home/ruslan/coding/study-ethr-did/revocation-registry/contracts/RevocationRegistry.sol",
  "compiler": {
    "name": "solc",
    "version": "0.5.16+commit.9c3226ce.Emscripten.clang"
  },
  "schemaVersion": "3.3.4",
  "updatedAt": "2021-06-14T15:49:55.248Z",
  "networkType": "ethereum",
  "devdoc": {
    "methods": {}
  },
  "userdoc": {
    "methods": {}
  }
}